{
  "contractName": "Transfers2",
  "abi": [
    {
      "constant": false,
      "inputs": [
        {
          "name": "_addr",
          "type": "address"
        }
      ],
      "name": "transfer",
      "outputs": [],
      "payable": true,
      "stateMutability": "payable",
      "type": "function"
    }
  ],
  "bytecode": "0x608060405234801561001057600080fd5b5060ed8061001f6000396000f300608060405260043610603f576000357c0100000000000000000000000000000000000000000000000000000000900463ffffffff1680631a695230146044575b600080fd5b6076600480360381019080803573ffffffffffffffffffffffffffffffffffffffff1690602001909291905050506078565b005b8073ffffffffffffffffffffffffffffffffffffffff166108fc349081150290604051600060405180830381858888f1935050505015801560bd573d6000803e3d6000fd5b50505600a165627a7a72305820209c01cb2e368e0b2e0c7ad0fd47631dedcbc3b590e67bc7e102518208af1d0a0029",
  "source": "pragma solidity ^0.4.19;\n\ncontract Transfers2 {\n\tfunction transfer(address _addr) public payable {\n\t\t_addr.transfer(msg.value);\n\t}\n}",
  "sourcePath": "/home/elizabeth/Documents/transfers/contracts/Transfers2.sol",
  "compiler": {
    "name": "solc",
    "version": "0.4.24+commit.e67f0147.Emscripten.clang"
  },
  "schemaVersion": "2.0.0",
  "updatedAt": "2018-06-08T01:10:53.997Z"
}