{
  "contractName": "Transfers2",
  "abi": [
    {
      "constant": false,
      "inputs": [
        {
          "name": "_addr",
          "type": "address"
        }
      ],
      "name": "transfer",
      "outputs": [],
      "payable": true,
      "stateMutability": "payable",
      "type": "function"
    },
    {
      "constant": false,
      "inputs": [
        {
          "name": "_addr1",
          "type": "address"
        },
        {
          "name": "_addr2",
          "type": "address"
        }
      ],
      "name": "transferMulti",
      "outputs": [],
      "payable": true,
      "stateMutability": "payable",
      "type": "function"
    }
  ],
  "bytecode": "0x608060405234801561001057600080fd5b506101fd806100206000396000f30060806040526004361061004c576000357c0100000000000000000000000000000000000000000000000000000000900463ffffffff1680631a69523014610051578063998f00b514610087575b600080fd5b610085600480360381019080803573ffffffffffffffffffffffffffffffffffffffff1690602001909291905050506100dd565b005b6100db600480360381019080803573ffffffffffffffffffffffffffffffffffffffff169060200190929190803573ffffffffffffffffffffffffffffffffffffffff169060200190929190505050610127565b005b8073ffffffffffffffffffffffffffffffffffffffff166108fc349081150290604051600060405180830381858888f19350505050158015610123573d6000803e3d6000fd5b5050565b8173ffffffffffffffffffffffffffffffffffffffff166108fc60023481151561014d57fe5b049081150290604051600060405180830381858888f19350505050158015610179573d6000803e3d6000fd5b508073ffffffffffffffffffffffffffffffffffffffff166108fc6002348115156101a057fe5b049081150290604051600060405180830381858888f193505050501580156101cc573d6000803e3d6000fd5b5050505600a165627a7a72305820194e236c62cbbb702b72ff8a87164a45e179511d8673420e272611ea2eff032d0029",
  "source": "pragma solidity ^0.4.19;\n\ncontract Transfers2 {\n\tfunction transfer(address _addr) public payable {\n\t\t_addr.transfer(msg.value);\n\t}\n\n\tfunction transferMulti(address _addr1, address _addr2) public payable {\n\t\t_addr1.transfer(msg.value/2);\n\t\t_addr2.transfer(msg.value/2);\n\t}\n}",
  "sourcePath": "/home/elizabeth/Documents/transfers/contracts/Transfers2.sol",
  "compiler": {
    "name": "solc",
    "version": "0.4.24+commit.e67f0147.Emscripten.clang"
  },
  "schemaVersion": "2.0.0",
  "updatedAt": "2018-06-11T14:43:39.324Z"
}