{
  "contractName": "Transfers",
  "abi": [
    {
      "constant": true,
      "inputs": [
        {
          "name": "",
          "type": "address"
        }
      ],
      "name": "balances",
      "outputs": [
        {
          "name": "",
          "type": "uint256"
        }
      ],
      "payable": false,
      "stateMutability": "view",
      "type": "function"
    },
    {
      "inputs": [],
      "payable": false,
      "stateMutability": "nonpayable",
      "type": "constructor"
    },
    {
      "constant": false,
      "inputs": [
        {
          "name": "_addr",
          "type": "address"
        },
        {
          "name": "_value",
          "type": "uint256"
        }
      ],
      "name": "transfer",
      "outputs": [],
      "payable": false,
      "stateMutability": "nonpayable",
      "type": "function"
    },
    {
      "constant": false,
      "inputs": [
        {
          "name": "_addr1",
          "type": "address"
        },
        {
          "name": "_addr2",
          "type": "address"
        },
        {
          "name": "_value",
          "type": "uint256"
        }
      ],
      "name": "transferTwo",
      "outputs": [],
      "payable": false,
      "stateMutability": "nonpayable",
      "type": "function"
    },
    {
      "constant": false,
      "inputs": [],
      "name": "myBalance",
      "outputs": [
        {
          "name": "",
          "type": "uint256"
        }
      ],
      "payable": false,
      "stateMutability": "nonpayable",
      "type": "function"
    },
    {
      "constant": false,
      "inputs": [],
      "name": "deposit",
      "outputs": [
        {
          "name": "",
          "type": "uint256"
        }
      ],
      "payable": true,
      "stateMutability": "payable",
      "type": "function"
    },
    {
      "constant": false,
      "inputs": [
        {
          "name": "_addr",
          "type": "address"
        },
        {
          "name": "_value",
          "type": "uint256"
        }
      ],
      "name": "withdraw",
      "outputs": [],
      "payable": false,
      "stateMutability": "nonpayable",
      "type": "function"
    },
    {
      "constant": false,
      "inputs": [
        {
          "name": "_addrs",
          "type": "address[]"
        },
        {
          "name": "_value",
          "type": "uint256"
        }
      ],
      "name": "withdrawMulti",
      "outputs": [],
      "payable": false,
      "stateMutability": "nonpayable",
      "type": "function"
    }
  ],
  "bytecode": "0x608060405234801561001057600080fd5b506100196100de565b604051809103906000f080158015610035573d6000803e3d6000fd5b50600160006101000a81548173ffffffffffffffffffffffffffffffffffffffff021916908373ffffffffffffffffffffffffffffffffffffffff160217905550600160009054906101000a900473ffffffffffffffffffffffffffffffffffffffff16600260006101000a81548173ffffffffffffffffffffffffffffffffffffffff021916908373ffffffffffffffffffffffffffffffffffffffff1602179055506100ee565b60405161021d806109b383390190565b6108b6806100fd6000396000f300608060405260043610610083576000357c0100000000000000000000000000000000000000000000000000000000900463ffffffff16806327e235e3146100885780636b557a22146100df578063a9059cbb1461014f578063c9116b691461019c578063d0e30db0146101c7578063eee4b8d4146101e5578063f3fef3a314610252575b600080fd5b34801561009457600080fd5b506100c9600480360381019080803573ffffffffffffffffffffffffffffffffffffffff16906020019092919050505061029f565b6040518082815260200191505060405180910390f35b3480156100eb57600080fd5b5061014d60048036038101908080359060200190820180359060200190808060200260200160405190810160405280939291908181526020018383602002808284378201915050505050509192919290803590602001909291905050506102b7565b005b34801561015b57600080fd5b5061019a600480360381019080803573ffffffffffffffffffffffffffffffffffffffff169060200190929190803590602001909291905050506103d9565b005b3480156101a857600080fd5b506101b1610539565b6040518082815260200191505060405180910390f35b6101cf61057f565b6040518082815260200191505060405180910390f35b3480156101f157600080fd5b50610250600480360381019080803573ffffffffffffffffffffffffffffffffffffffff169060200190929190803573ffffffffffffffffffffffffffffffffffffffff16906020019092919080359060200190929190505050610611565b005b34801561025e57600080fd5b5061029d600480360381019080803573ffffffffffffffffffffffffffffffffffffffff169060200190929190803590602001909291905050506107a6565b005b60006020528060005260406000206000915090505481565b600080835191508183026000803373ffffffffffffffffffffffffffffffffffffffff1673ffffffffffffffffffffffffffffffffffffffff168152602001908152602001600020541015151561030d57600080fd5b8183026000803373ffffffffffffffffffffffffffffffffffffffff1673ffffffffffffffffffffffffffffffffffffffff16815260200190815260200160002060008282540392505081905550600090505b818110156103d357838181518110151561037657fe5b9060200190602002015173ffffffffffffffffffffffffffffffffffffffff166108fc849081150290604051600060405180830381858888f193505050501580156103c5573d6000803e3d6000fd5b508080600101915050610360565b50505050565b6000816000803373ffffffffffffffffffffffffffffffffffffffff1673ffffffffffffffffffffffffffffffffffffffff168152602001908152602001600020541015151561042857600080fd5b60405180807f7472616e73666572286164647265737329000000000000000000000000000000815250601101905060405180910390209050600260009054906101000a900473ffffffffffffffffffffffffffffffffffffffff1673ffffffffffffffffffffffffffffffffffffffff1682827c0100000000000000000000000000000000000000000000000000000000900490856040518363ffffffff167c0100000000000000000000000000000000000000000000000000000000028152600401808273ffffffffffffffffffffffffffffffffffffffff1673ffffffffffffffffffffffffffffffffffffffff16815260200191505060006040518083038185885af1935050505050505050565b60008060003373ffffffffffffffffffffffffffffffffffffffff1673ffffffffffffffffffffffffffffffffffffffff16815260200190815260200160002054905090565b6000346000803373ffffffffffffffffffffffffffffffffffffffff1673ffffffffffffffffffffffffffffffffffffffff168152602001908152602001600020600082825401925050819055506000803373ffffffffffffffffffffffffffffffffffffffff1673ffffffffffffffffffffffffffffffffffffffff16815260200190815260200160002054905090565b6000816000803373ffffffffffffffffffffffffffffffffffffffff1673ffffffffffffffffffffffffffffffffffffffff168152602001908152602001600020541015151561066057600080fd5b60405180807f7472616e736665724d756c746928616464726573732c61646472657373290000815250601e01905060405180910390209050600260009054906101000a900473ffffffffffffffffffffffffffffffffffffffff1673ffffffffffffffffffffffffffffffffffffffff1682827c010000000000000000000000000000000000000000000000000000000090049086866040518463ffffffff167c0100000000000000000000000000000000000000000000000000000000028152600401808373ffffffffffffffffffffffffffffffffffffffff1673ffffffffffffffffffffffffffffffffffffffff1681526020018273ffffffffffffffffffffffffffffffffffffffff1673ffffffffffffffffffffffffffffffffffffffff1681526020019250505060006040518083038185885af193505050505050505050565b806000803373ffffffffffffffffffffffffffffffffffffffff1673ffffffffffffffffffffffffffffffffffffffff16815260200190815260200160002054101515156107f357600080fd5b806000803373ffffffffffffffffffffffffffffffffffffffff1673ffffffffffffffffffffffffffffffffffffffff168152602001908152602001600020600082825403925050819055508173ffffffffffffffffffffffffffffffffffffffff166108fc829081150290604051600060405180830381858888f19350505050158015610885573d6000803e3d6000fd5b5050505600a165627a7a72305820a102989f45ee3e420160cc196bc3ef03e917b4daf4152e8f7f8499d24f128a6a0029608060405234801561001057600080fd5b506101fd806100206000396000f30060806040526004361061004c576000357c0100000000000000000000000000000000000000000000000000000000900463ffffffff1680631a69523014610051578063998f00b514610087575b600080fd5b610085600480360381019080803573ffffffffffffffffffffffffffffffffffffffff1690602001909291905050506100dd565b005b6100db600480360381019080803573ffffffffffffffffffffffffffffffffffffffff169060200190929190803573ffffffffffffffffffffffffffffffffffffffff169060200190929190505050610127565b005b8073ffffffffffffffffffffffffffffffffffffffff166108fc349081150290604051600060405180830381858888f19350505050158015610123573d6000803e3d6000fd5b5050565b8173ffffffffffffffffffffffffffffffffffffffff166108fc60023481151561014d57fe5b049081150290604051600060405180830381858888f19350505050158015610179573d6000803e3d6000fd5b508073ffffffffffffffffffffffffffffffffffffffff166108fc6002348115156101a057fe5b049081150290604051600060405180830381858888f193505050501580156101cc573d6000803e3d6000fd5b5050505600a165627a7a72305820194e236c62cbbb702b72ff8a87164a45e179511d8673420e272611ea2eff032d0029",
  "source": "pragma solidity ^0.4.19;\n\nimport \"./Transfers2.sol\";\n\ncontract Transfers {\n\tmapping (address => uint) public balances;\n\tTransfers2 t;\n\taddress t_addr;\n\n\tconstructor() public {\n\t\tt = new Transfers2();\n\t\tt_addr = address(t);\n\t}\n\n\tfunction transfer(address _addr, uint _value) public {\n\t\trequire(balances[msg.sender] >= _value);\n\t\tbytes4 sig = bytes4(keccak256(\"transfer(address)\"));\n\t\tt_addr.call.value(_value)(sig, _addr);\t\t\n\t}\n\n\tfunction transferTwo(address _addr1, address _addr2, uint _value) public {\n\t\trequire(balances[msg.sender] >= _value);\n\t\tbytes4 sig = bytes4(keccak256(\"transferMulti(address,address)\"));\n\t\tt_addr.call.value(_value)(sig, _addr1, _addr2);\t\t\n\t}\n\n\tfunction myBalance() public returns (uint) {\n\t\treturn balances[msg.sender];\n\t}\n\n\tfunction deposit() public payable returns (uint) {\n\t\tbalances[msg.sender] += msg.value;\n\t\treturn balances[msg.sender];\n\t}\n\n\tfunction withdraw(address _addr, uint _value) public {\n\t\trequire(balances[msg.sender] >= _value);\n\t\tbalances[msg.sender] -= _value;\n\t\t_addr.transfer(_value);\n\t}\n\n\tfunction withdrawMulti(address[] _addrs, uint _value) public {\n\t\tuint l = _addrs.length;\n\t\trequire(balances[msg.sender] >= _value * l);\n\t\tbalances[msg.sender] -= _value * l;\n\t\tfor (uint i = 0; i < l; i++){\n\t\t\t_addrs[i].transfer(_value);\n\t\t}\n\t}\n}",
  "sourcePath": "/home/elizabeth/Documents/transfers/contracts/Transfers.sol",
  "compiler": {
    "name": "solc",
    "version": "0.4.24+commit.e67f0147.Emscripten.clang"
  },
  "schemaVersion": "2.0.0",
  "updatedAt": "2018-06-11T14:43:39.321Z"
}