{
  "contractName": "Transfers",
  "abi": [
    {
      "constant": false,
      "inputs": [],
      "name": "deposit",
      "outputs": [],
      "payable": true,
      "stateMutability": "payable",
      "type": "function"
    },
    {
      "constant": false,
      "inputs": [
        {
          "name": "_addr",
          "type": "address"
        },
        {
          "name": "_value",
          "type": "uint256"
        }
      ],
      "name": "withdraw",
      "outputs": [],
      "payable": false,
      "stateMutability": "nonpayable",
      "type": "function"
    },
    {
      "constant": false,
      "inputs": [
        {
          "name": "_addrs",
          "type": "address[]"
        },
        {
          "name": "_value",
          "type": "uint256"
        }
      ],
      "name": "withdrawMulti",
      "outputs": [],
      "payable": false,
      "stateMutability": "nonpayable",
      "type": "function"
    },
    {
      "constant": false,
      "inputs": [
        {
          "name": "_addrs",
          "type": "address[3]"
        },
        {
          "name": "_value",
          "type": "uint256"
        }
      ],
      "name": "withdrawThree",
      "outputs": [],
      "payable": false,
      "stateMutability": "nonpayable",
      "type": "function"
    }
  ],
  "bytecode": "0x608060405234801561001057600080fd5b50610527806100206000396000f300608060405260043610610062576000357c0100000000000000000000000000000000000000000000000000000000900463ffffffff1680636b557a2214610067578063d0e30db0146100d7578063e71d27a9146100e1578063f3fef3a31461013d575b600080fd5b34801561007357600080fd5b506100d5600480360381019080803590602001908201803590602001908080602002602001604051908101604052809392919081815260200183836020028082843782019150505050505091929192908035906020019092919050505061018a565b005b6100df6102ac565b005b3480156100ed57600080fd5b5061013b6004803603810190808060600190600380602002604051908101604052809291908260036020028082843782019150505050509192919290803590602001909291905050506102fa565b005b34801561014957600080fd5b50610188600480360381019080803573ffffffffffffffffffffffffffffffffffffffff16906020019092919080359060200190929190505050610417565b005b600080835191508183026000803373ffffffffffffffffffffffffffffffffffffffff1673ffffffffffffffffffffffffffffffffffffffff16815260200190815260200160002054101515156101e057600080fd5b8183026000803373ffffffffffffffffffffffffffffffffffffffff1673ffffffffffffffffffffffffffffffffffffffff16815260200190815260200160002060008282540392505081905550600090505b818110156102a657838181518110151561024957fe5b9060200190602002015173ffffffffffffffffffffffffffffffffffffffff166108fc849081150290604051600060405180830381858888f19350505050158015610298573d6000803e3d6000fd5b508080600101915050610233565b50505050565b346000803373ffffffffffffffffffffffffffffffffffffffff1673ffffffffffffffffffffffffffffffffffffffff16815260200190815260200160002060008282540192505081905550565b600080600391508183026000803373ffffffffffffffffffffffffffffffffffffffff1673ffffffffffffffffffffffffffffffffffffffff168152602001908152602001600020541015151561035057600080fd5b8183026000803373ffffffffffffffffffffffffffffffffffffffff1673ffffffffffffffffffffffffffffffffffffffff16815260200190815260200160002060008282540392505081905550600090505b818110156104115783816003811015156103b957fe5b602002015173ffffffffffffffffffffffffffffffffffffffff166108fc849081150290604051600060405180830381858888f19350505050158015610403573d6000803e3d6000fd5b5080806001019150506103a3565b50505050565b806000803373ffffffffffffffffffffffffffffffffffffffff1673ffffffffffffffffffffffffffffffffffffffff168152602001908152602001600020541015151561046457600080fd5b806000803373ffffffffffffffffffffffffffffffffffffffff1673ffffffffffffffffffffffffffffffffffffffff168152602001908152602001600020600082825403925050819055508173ffffffffffffffffffffffffffffffffffffffff166108fc829081150290604051600060405180830381858888f193505050501580156104f6573d6000803e3d6000fd5b5050505600a165627a7a72305820a67ee356826052b8b57fa04302cee788b29d9f5e6f74cd3ee73acb2d5ca2ffa20029",
  "source": "pragma solidity ^0.4.19;\n\ncontract Transfers {\n\tmapping(address => uint) balance;\n\n\tfunction deposit() public payable {\n\t\tbalance[msg.sender] += msg.value;\n\t}\n\n\tfunction withdraw(address _addr, uint _value) public {\n\t\trequire(balance[msg.sender] >= _value);\n\t\tbalance[msg.sender] -= _value;\n\t\t_addr.transfer(_value);\n\t}\n\n\tfunction withdrawMulti(address[] _addrs, uint _value) public {\n\t\tuint l = _addrs.length;\n\t\trequire(balance[msg.sender] >= _value * l);\n\t\tbalance[msg.sender] -= _value * l;\n\t\tfor (uint i = 0; i < l; i++){\n\t\t\t_addrs[i].transfer(_value);\n\t\t}\n\t}\n\n\tfunction withdrawThree(address[3] _addrs, uint _value) public {\n\t\tuint l = 3;\n\t\trequire(balance[msg.sender] >= _value * l);\n\t\tbalance[msg.sender] -= _value * l;\n\t\tfor (uint i = 0; i < l; i++){\n\t\t\t_addrs[i].transfer(_value);\n\t\t}\n\t}\n}",
  "sourcePath": "/home/elizabeth/Documents/transfers/contracts/Transfers.sol",
  "compiler": {
    "name": "solc",
    "version": "0.4.24+commit.e67f0147.Emscripten.clang"
  },
  "schemaVersion": "2.0.0",
  "updatedAt": "2018-06-08T01:10:54.000Z"
}